:100000000C942A000C9447000C9447000C94470071
:100010000C9447000C9447000C9447000C94470044
:100020000C9447000C9447000C9447000C94470034
:100030000C9447000C9447000C9447000C94470024
:100040000C9447000C9447000C9447000C94470014
:100050000C94470011241FBECFE5D8E0DEBFCDBF12
:1000600011E0A0E6B0E0ECE6F6E002C005900D92EB
:10007000AC31B107D9F711E0ACE1B1E001C01D929C
:10008000A532B107E1F70E9452020C9434030C949C
:10009000000082E08BB988E18AB986E880BD88E0FB
:1000A00089B910BC08955D9BFECF8CB908955F9B04
:1000B000FECF8CB10895CF93DF93EC018991882313
:1000C00019F00E945300FACFDF91CF910895CF939A
:1000D000DF93CDB7DEB764970FB6F894DEBF0FBEDF
:1000E000CDBF4AE050E0BE016F5F7F4F0E94EF023C
:1000F000CE0101960E945B0064960FB6F894DEBFB5
:100100000FBECDBFDF91CF91089580EB87BBBE9826
:1001100080E58DB9689AC49808958FB9779BFECF12
:100120008FB1089580E487BB8DB90895C49A08956E
:10013000C39A08950E948500BB9ABC9AC3980C94F8
:10014000960081110C949600C49808951F93CF9344
:10015000DF931F92CDB7DEB7182F80E069830E942E
:10016000A100812F8F7180620E948D006981862F8E
:100170000E948D000F90DF91CF911F910C949600FB
:1001800081110C949800C398089580E00E94A1000A
:1001900082EE0E948D000E94960060E787E00E9438
:1001A000A60080E00E94C0006BE080E00E94A600F4
:1001B0000C94980060931F01682F85E00E94A600B0
:1001C00060E081E10E94A60060911F0182E10E942F
:1001D000A60060E083E10E94A60060E084E10E9446
:1001E000A60060E085E10E94A60060E086E10E9432
:1001F000A60066E086E00E94A60068E080E00E941B
:10020000A60063E081E00E94A60063E082E00E9415
:10021000A6006FE484E00E94A60060E08CE10E94EA
:10022000A6000C94C500EF92FF921F93CF93DF932B
:100230001F92CDB7DEB7182F7C018E2D811B86173C
:1002400040F4F70181917F0169830E948D006981EB
:10025000F4CF0F90DF91CF911F91FF90EF90089511
:10026000EF92FF921F93CF93DF931F92CDB7DEB72C
:10027000182F7B0180E049830E94A100812F8F719C
:1002800080620E948D004981642FC7010E94130182
:100290000F90DF91CF911F91FF90EF900C949600FB
:1002A000CF93DF93EC0145E0BC018AE00E9430016E
:1002B00045E0BE0180E1DF91CF910C943001CF92F7
:1002C000DF92FF920F931F93CF93DF931F92CDB7CF
:1002D000DEB7F82E8B016C018C2D8F19841758F422
:1002E000F60181916F0149830E948D00F80181938D
:1002F0008F014981F1CF0F90DF91CF911F910F9125
:10030000FF90DF90CF900895CF93DF93EC0180E0D2
:100310000E94C00045E0BE018BE00E943001DF91E9
:10032000CF910C94980060E787E00E94A6006AE0F5
:1003300080E00C94A600CF93DF93EC0180E00E9454
:10034000C0000E94930180E00E94A10081EE0E9403
:100350008D000E94960080E00E94A10080EA0E9429
:100360008D0060911F01CE010E9413010E94960032
:10037000DF91CF910C949800CF93DF931F92CDB76C
:10038000DEB780E00E94A1008FEF0E948D0089837C
:100390000E94960089810F90DF91CF9108950E946D
:1003A000BC01982F907381E009F080E008950E94CD
:1003B000BC0185FD04C084FF04C081E0089580E095
:1003C00008958FEF0895EF92FF921F93CF93DF93DD
:1003D0001F92CDB7DEB7182F7B0180E049830E94C2
:1003E000A100812F8F710E948D004981B701C70143
:1003F0000E945F010F90DF91CF911F91FF90EF90CE
:100400000C949600CF93DF931F92CDB7DEB741E0F7
:10041000BE016F5F7F4F88E00E94E30189818F708A
:100420000F90DF91CF91089580E00E94C00068E0B6
:1004300080E00C94A600CF93DF93EC0180E00E9453
:10044000A10081E60E948D0040911F01BE01CE01F6
:100450000E945F010E94960060E487E0DF91CF91E7
:100460000C94A600CF93DF931F92CDB7DEB741E087
:10047000BE016F5F7F4F87E10E94E3018981817038
:100480000F90DF91CF9108950E94BC0186FD07C0B7
:100490000E94320291E0882319F090E001C091E0BF
:1004A000892F08950E9449002FEF80E792E02150A4
:1004B00080409040E1F700C000008EE690E00E948E
:1004C0005B000E949A0064E082E00E94DA0085E608
:1004D00090E00E94500180E690E00E9484018CE749
:1004E00090E00E945B0010921D0110921C0180910F
:1004F0001C0190911D018035910598F50E944402E0
:100500008823E1F081E291E00E941B0289E890E0FB
:100510000E945B00809121010E9453008091220182
:100520000E945300809123010E9453008091240176
:100530000E94530081EA90E00E945B002FEF80E769
:1005400092E0215080409040E1F700C0000080918F
:100550001C0190911D01019690931D0180931C0137
:10056000C6CF86EA90E00E945B008AE690E00E9497
:100570009B010E94CF018111FCCF87EB90E00E948C
:100580005B000E94D70180932001811103C084ED9C
:1005900090E004C0813021F48AEE90E00E945B007C
:1005A0000E9402028093200180E091E00E945B00A3
:1005B0008091200190E00E94670083EA90E00E9411
:1005C0005B000E94C5002FEF80E792E02150804041
:1005D0009040E1F700C0000085E191E082CFFB018F
:1005E0009F01E8944230C4F04532B4F44A3029F413
:1005F00097FB1EF4909581959F4F642F77270E945B
:100600002003805D8A330CF0895D8193CB010097D4
:10061000A1F716F45DE251931082C9010C94100306
:10062000DC01FC01672F71917723E1F7329704C059
:100630007C916D9370836291AE17BF07C8F30895E4
:10064000AA1BBB1B51E107C0AA1FBB1FA617B707F8
:1006500010F0A61BB70B881F991F5A95A9F7809514
:0C0660009095BC01CD010895F894FFCFE7
:10066C00E7E7E7E7E7D7D7D7D7D76C61623253799B
:10067C007374656D20696E69740D0A005374617230
:10068C00742050726F670D0A0044617461207265AA
:10069C00636965766564202D2D2D2D2D3E3E202021
:1006AC00000D0A0D0A0073656E6420746865206184
:1006BC00727261790D0A007472616E736D6973697F
:1006CC006F6E20686173206265656E20656E64656F
:1006DC00640D0A005472616E6D697373696F6E20DC
:1006EC0077656E74204F4B0D0A004D65737361670F
:1006FC0065206973206C6F7374202E2E2E0D0A00EA
:10070C0052657472616E6D697373696F6E20636F7D
:0C071C00756E743A00456E640D0A000012
:00000001FF
